{
  "address": "0x5FbDB2315678afecb367f032d93F642f64180aa3",
  "abi": [
    {
      "inputs": [],
      "stateMutability": "nonpayable",
      "type": "constructor"
    },
    {
      "inputs": [],
      "name": "invalidFund",
      "type": "error"
    },
    {
      "inputs": [],
      "name": "transactionUnsuccessful",
      "type": "error"
    },
    {
      "inputs": [],
      "name": "unAuthorized",
      "type": "error"
    },
    {
      "stateMutability": "payable",
      "type": "fallback"
    },
    {
      "inputs": [
        {
          "internalType": "string",
          "name": "_eventName",
          "type": "string"
        }
      ],
      "name": "addFund",
      "outputs": [],
      "stateMutability": "payable",
      "type": "function"
    },
    {
      "inputs": [
        {
          "internalType": "uint256",
          "name": "",
          "type": "uint256"
        }
      ],
      "name": "events",
      "outputs": [
        {
          "internalType": "string",
          "name": "eventName",
          "type": "string"
        },
        {
          "internalType": "uint256",
          "name": "requiredFund",
          "type": "uint256"
        },
        {
          "internalType": "address",
          "name": "fundRaiserAddress",
          "type": "address"
        },
        {
          "internalType": "enum EthCharity.EventStatus",
          "name": "status",
          "type": "uint8"
        },
        {
          "internalType": "uint256",
          "name": "collectedFund",
          "type": "uint256"
        },
        {
          "internalType": "string",
          "name": "description",
          "type": "string"
        }
      ],
      "stateMutability": "view",
      "type": "function"
    },
    {
      "inputs": [],
      "name": "leftAmount",
      "outputs": [
        {
          "internalType": "uint256",
          "name": "",
          "type": "uint256"
        }
      ],
      "stateMutability": "view",
      "type": "function"
    },
    {
      "inputs": [
        {
          "internalType": "string",
          "name": "eventName",
          "type": "string"
        },
        {
          "internalType": "uint256",
          "name": "requiredFund",
          "type": "uint256"
        },
        {
          "internalType": "string",
          "name": "description",
          "type": "string"
        }
      ],
      "name": "postEvents",
      "outputs": [],
      "stateMutability": "nonpayable",
      "type": "function"
    },
    {
      "inputs": [
        {
          "internalType": "address",
          "name": "_address",
          "type": "address"
        }
      ],
      "name": "showDonor",
      "outputs": [
        {
          "components": [
            {
              "internalType": "string",
              "name": "eventName",
              "type": "string"
            },
            {
              "internalType": "uint256",
              "name": "donatedAmount",
              "type": "uint256"
            }
          ],
          "internalType": "struct EthCharity.projectsDonated[]",
          "name": "",
          "type": "tuple[]"
        }
      ],
      "stateMutability": "view",
      "type": "function"
    },
    {
      "inputs": [],
      "name": "showEvents",
      "outputs": [
        {
          "components": [
            {
              "internalType": "string",
              "name": "eventName",
              "type": "string"
            },
            {
              "internalType": "uint256",
              "name": "requiredFund",
              "type": "uint256"
            },
            {
              "internalType": "address",
              "name": "fundRaiserAddress",
              "type": "address"
            },
            {
              "internalType": "enum EthCharity.EventStatus",
              "name": "status",
              "type": "uint8"
            },
            {
              "internalType": "uint256",
              "name": "collectedFund",
              "type": "uint256"
            },
            {
              "internalType": "string",
              "name": "description",
              "type": "string"
            }
          ],
          "internalType": "struct EthCharity.Event[]",
          "name": "",
          "type": "tuple[]"
        }
      ],
      "stateMutability": "view",
      "type": "function"
    },
    {
      "inputs": [],
      "name": "withdrawFund",
      "outputs": [],
      "stateMutability": "nonpayable",
      "type": "function"
    },
    {
      "stateMutability": "payable",
      "type": "receive"
    }
  ],
  "transactionHash": "0x4fc6dd58649f72c5ea5b349359635a7f6b88f7552ea681a51bba950de1efbdce",
  "args": [],
  "numDeployments": 1,
  "solcInputHash": "b4654760b52b42f4050d6e5982c8626f",
  "bytecode": "0x60a060405234801561001057600080fd5b503373ffffffffffffffffffffffffffffffffffffffff1660808173ffffffffffffffffffffffffffffffffffffffff1660601b8152505060805160601c611a5c61007460003960008181610d1201528181610da00152610e120152611a5c6000f3fe6080604052600436106100745760003560e01c8063a46de71a1161004e578063a46de71a14610136578063da53b97114610173578063e07fa3c11461019c578063eadf76c5146101b35761007b565b80630b791430146100ad57806313293b40146100ef5780632fc086f01461011a5761007b565b3661007b57005b6040517ffe735ae900000000000000000000000000000000000000000000000000000000815260040160405180910390fd5b3480156100b957600080fd5b506100d460048036038101906100cf91906110e4565b6101de565b6040516100e696959493929190611539565b60405180910390f35b3480156100fb57600080fd5b50610104610367565b60405161011191906114f5565b60405180910390f35b610134600480360381019061012f9190611010565b61058f565b005b34801561014257600080fd5b5061015d60048036038101906101589190610fe3565b610a3e565b60405161016a9190611517565b60405180910390f35b34801561017f57600080fd5b5061019a60048036038101906101959190611059565b610b78565b005b3480156101a857600080fd5b506101b1610d10565b005b3480156101bf57600080fd5b506101c8610e0e565b6040516101d591906115c8565b60405180910390f35b600181815481106101ee57600080fd5b9060005260206000209060050201600091509050806000018054610211906117fc565b80601f016020809104026020016040519081016040528092919081815260200182805461023d906117fc565b801561028a5780601f1061025f5761010080835404028352916020019161028a565b820191906000526020600020905b81548152906001019060200180831161026d57829003601f168201915b5050505050908060010154908060020160009054906101000a900473ffffffffffffffffffffffffffffffffffffffff16908060020160149054906101000a900460ff16908060030154908060040180546102e4906117fc565b80601f0160208091040260200160405190810160405280929190818152602001828054610310906117fc565b801561035d5780601f106103325761010080835404028352916020019161035d565b820191906000526020600020905b81548152906001019060200180831161034057829003601f168201915b5050505050905086565b60606001805480602002602001604051908101604052809291908181526020016000905b8282101561058657838290600052602060002090600502016040518060c00160405290816000820180546103be906117fc565b80601f01602080910402602001604051908101604052809291908181526020018280546103ea906117fc565b80156104375780601f1061040c57610100808354040283529160200191610437565b820191906000526020600020905b81548152906001019060200180831161041a57829003601f168201915b50505050508152602001600182015481526020016002820160009054906101000a900473ffffffffffffffffffffffffffffffffffffffff1673ffffffffffffffffffffffffffffffffffffffff1673ffffffffffffffffffffffffffffffffffffffff1681526020016002820160149054906101000a900460ff1660018111156104c5576104c46118d7565b5b60018111156104d7576104d66118d7565b5b8152602001600382015481526020016004820180546104f5906117fc565b80601f0160208091040260200160405190810160405280929190818152602001828054610521906117fc565b801561056e5780601f106105435761010080835404028352916020019161056e565b820191906000526020600020905b81548152906001019060200180831161055157829003601f168201915b5050505050815250508152602001906001019061038b565b50505050905090565b346000808282546105a09190611703565b925050819055506000600260003373ffffffffffffffffffffffffffffffffffffffff1673ffffffffffffffffffffffffffffffffffffffff16815260200190815260200160002090506000805b8280549050811015610706578360405160200161060b91906114b2565b6040516020818303038152906040528051906020012083828154811061063457610633611935565b5b906000526020600020906002020160000160405160200161065591906114c9565b6040516020818303038152906040528051906020012014156106f35734600260003373ffffffffffffffffffffffffffffffffffffffff1673ffffffffffffffffffffffffffffffffffffffff16815260200190815260200160002082815481106106c3576106c2611935565b5b906000526020600020906002020160010160008282546106e39190611703565b9250508190555060019150610706565b80806106fe9061185f565b9150506105ee565b50806107b357600260003373ffffffffffffffffffffffffffffffffffffffff1673ffffffffffffffffffffffffffffffffffffffff168152602001908152602001600020604051806040016040528085815260200134815250908060018154018082558091505060019003906000526020600020906002020160009091909190915060008201518160000190805190602001906107a5929190610ea6565b506020820151816001015550505b60005b600180549050811015610a3857836040516020016107d491906114b2565b60405160208183030381529060405280519060200120600182815481106107fe576107fd611935565b5b906000526020600020906005020160000160405160200161081f91906114c9565b604051602081830303815290604052805190602001201415610a255734600182815481106108505761084f611935565b5b906000526020600020906005020160030160008282546108709190611703565b925050819055506001818154811061088b5761088a611935565b5b906000526020600020906005020160010154600182815481106108b1576108b0611935565b5b90600052602060002090600502016003015410610a245760018082815481106108dd576108dc611935565b5b906000526020600020906005020160020160146101000a81548160ff021916908360018111156109105761090f6118d7565b5b021790555060006001828154811061092b5761092a611935565b5b906000526020600020906005020160020160009054906101000a900473ffffffffffffffffffffffffffffffffffffffff1673ffffffffffffffffffffffffffffffffffffffff166001838154811061098757610986611935565b5b9060005260206000209060050201600101546040516109a5906114e0565b60006040518083038185875af1925050503d80600081146109e2576040519150601f19603f3d011682016040523d82523d6000602084013e6109e7565b606091505b5050905080610a22576040517f747dd26700000000000000000000000000000000000000000000000000000000815260040160405180910390fd5b505b5b8080610a309061185f565b9150506107b6565b50505050565b6060600260008373ffffffffffffffffffffffffffffffffffffffff1673ffffffffffffffffffffffffffffffffffffffff168152602001908152602001600020805480602002602001604051908101604052809291908181526020016000905b82821015610b6d5783829060005260206000209060020201604051806040016040529081600082018054610ad2906117fc565b80601f0160208091040260200160405190810160405280929190818152602001828054610afe906117fc565b8015610b4b5780601f10610b2057610100808354040283529160200191610b4b565b820191906000526020600020905b815481529060010190602001808311610b2e57829003601f168201915b5050505050815260200160018201548152505081526020019060010190610a9f565b505050509050919050565b8168056bc75e2d631000008110610bbb576040517fb256c14b00000000000000000000000000000000000000000000000000000000815260040160405180910390fd5b60006040518060c001604052808681526020018581526020013373ffffffffffffffffffffffffffffffffffffffff16815260200160006001811115610c0457610c036118d7565b5b81526020016000815260200184815250905060018190806001815401808255809150506001900390600052602060002090600502016000909190919091506000820151816000019080519060200190610c5e929190610ea6565b506020820151816001015560408201518160020160006101000a81548173ffffffffffffffffffffffffffffffffffffffff021916908373ffffffffffffffffffffffffffffffffffffffff16021790555060608201518160020160146101000a81548160ff02191690836001811115610cdb57610cda6118d7565b5b02179055506080820151816003015560a0820151816004019080519060200190610d06929190610ea6565b5050505050505050565b7f000000000000000000000000000000000000000000000000000000000000000073ffffffffffffffffffffffffffffffffffffffff163373ffffffffffffffffffffffffffffffffffffffff1614610d9e576040517f08c379a0000000000000000000000000000000000000000000000000000000008152600401610d95906115a8565b60405180910390fd5b7f000000000000000000000000000000000000000000000000000000000000000073ffffffffffffffffffffffffffffffffffffffff166108fc479081150290604051600060405180830381858888f19350505050158015610e04573d6000803e3d6000fd5b5060008081905550565b60007f000000000000000000000000000000000000000000000000000000000000000073ffffffffffffffffffffffffffffffffffffffff163373ffffffffffffffffffffffffffffffffffffffff1614610e9e576040517f08c379a0000000000000000000000000000000000000000000000000000000008152600401610e95906115a8565b60405180910390fd5b600054905090565b828054610eb2906117fc565b90600052602060002090601f016020900481019282610ed45760008555610f1b565b82601f10610eed57805160ff1916838001178555610f1b565b82800160010185558215610f1b579182015b82811115610f1a578251825591602001919060010190610eff565b5b509050610f289190610f2c565b5090565b5b80821115610f45576000816000905550600101610f2d565b5090565b6000610f5c610f5784611608565b6115e3565b905082815260208101848484011115610f7857610f77611998565b5b610f838482856117ba565b509392505050565b600081359050610f9a816119f8565b92915050565b600082601f830112610fb557610fb4611993565b5b8135610fc5848260208601610f49565b91505092915050565b600081359050610fdd81611a0f565b92915050565b600060208284031215610ff957610ff86119a2565b5b600061100784828501610f8b565b91505092915050565b600060208284031215611026576110256119a2565b5b600082013567ffffffffffffffff8111156110445761104361199d565b5b61105084828501610fa0565b91505092915050565b600080600060608486031215611072576110716119a2565b5b600084013567ffffffffffffffff8111156110905761108f61199d565b5b61109c86828701610fa0565b93505060206110ad86828701610fce565b925050604084013567ffffffffffffffff8111156110ce576110cd61199d565b5b6110da86828701610fa0565b9150509250925092565b6000602082840312156110fa576110f96119a2565b5b600061110884828501610fce565b91505092915050565b600061111d83836113c7565b905092915050565b60006111318383611457565b905092915050565b61114281611759565b82525050565b61115181611759565b82525050565b60006111628261166e565b61116c81856116a9565b93508360208202850161117e85611639565b8060005b858110156111ba578484038952815161119b8582611111565b94506111a68361168f565b925060208a01995050600181019050611182565b50829750879550505050505092915050565b60006111d782611679565b6111e181856116ba565b9350836020820285016111f385611649565b8060005b8581101561122f57848403895281516112108582611125565b945061121b8361169c565b925060208a019950506001810190506111f7565b50829750879550505050505092915050565b61124a816117a8565b82525050565b611259816117a8565b82525050565b600061126a82611684565b61127481856116d6565b93506112848185602086016117c9565b61128d816119a7565b840191505092915050565b60006112a382611684565b6112ad81856116e7565b93506112bd8185602086016117c9565b6112c6816119a7565b840191505092915050565b60006112dc82611684565b6112e681856116f8565b93506112f68185602086016117c9565b80840191505092915050565b6000815461130f816117fc565b61131981866116f8565b94506001821660008114611334576001811461134557611378565b60ff19831686528186019350611378565b61134e85611659565b60005b8381101561137057815481890152600182019150602081019050611351565b838801955050505b50505092915050565b600061138e600d836116e7565b9150611399826119b8565b602082019050919050565b60006113b16000836116cb565b91506113bc826119e1565b600082019050919050565b600060c08301600083015184820360008601526113e4828261125f565b91505060208301516113f96020860182611494565b50604083015161140c6040860182611139565b50606083015161141f6060860182611241565b5060808301516114326080860182611494565b5060a083015184820360a086015261144a828261125f565b9150508091505092915050565b60006040830160008301518482036000860152611474828261125f565b91505060208301516114896020860182611494565b508091505092915050565b61149d8161179e565b82525050565b6114ac8161179e565b82525050565b60006114be82846112d1565b915081905092915050565b60006114d58284611302565b915081905092915050565b60006114eb826113a4565b9150819050919050565b6000602082019050818103600083015261150f8184611157565b905092915050565b6000602082019050818103600083015261153181846111cc565b905092915050565b600060c08201905081810360008301526115538189611298565b905061156260208301886114a3565b61156f6040830187611148565b61157c6060830186611250565b61158960808301856114a3565b81810360a083015261159b8184611298565b9050979650505050505050565b600060208201905081810360008301526115c181611381565b9050919050565b60006020820190506115dd60008301846114a3565b92915050565b60006115ed6115fe565b90506115f9828261182e565b919050565b6000604051905090565b600067ffffffffffffffff82111561162357611622611964565b5b61162c826119a7565b9050602081019050919050565b6000819050602082019050919050565b6000819050602082019050919050565b60008190508160005260206000209050919050565b600081519050919050565b600081519050919050565b600081519050919050565b6000602082019050919050565b6000602082019050919050565b600082825260208201905092915050565b600082825260208201905092915050565b600081905092915050565b600082825260208201905092915050565b600082825260208201905092915050565b600081905092915050565b600061170e8261179e565b91506117198361179e565b9250827fffffffffffffffffffffffffffffffffffffffffffffffffffffffffffffffff0382111561174e5761174d6118a8565b5b828201905092915050565b60006117648261177e565b9050919050565b6000819050611779826119e4565b919050565b600073ffffffffffffffffffffffffffffffffffffffff82169050919050565b6000819050919050565b60006117b38261176b565b9050919050565b82818337600083830152505050565b60005b838110156117e75780820151818401526020810190506117cc565b838111156117f6576000848401525b50505050565b6000600282049050600182168061181457607f821691505b6020821081141561182857611827611906565b5b50919050565b611837826119a7565b810181811067ffffffffffffffff8211171561185657611855611964565b5b80604052505050565b600061186a8261179e565b91507fffffffffffffffffffffffffffffffffffffffffffffffffffffffffffffffff82141561189d5761189c6118a8565b5b600182019050919050565b7f4e487b7100000000000000000000000000000000000000000000000000000000600052601160045260246000fd5b7f4e487b7100000000000000000000000000000000000000000000000000000000600052602160045260246000fd5b7f4e487b7100000000000000000000000000000000000000000000000000000000600052602260045260246000fd5b7f4e487b7100000000000000000000000000000000000000000000000000000000600052603260045260246000fd5b7f4e487b7100000000000000000000000000000000000000000000000000000000600052604160045260246000fd5b600080fd5b600080fd5b600080fd5b600080fd5b6000601f19601f8301169050919050565b7f6e6f7420746865206f776e657200000000000000000000000000000000000000600082015250565b50565b600281106119f5576119f46118d7565b5b50565b611a0181611759565b8114611a0c57600080fd5b50565b611a188161179e565b8114611a2357600080fd5b5056fea26469706673582212205a1329056449733cc0b86f5baadf1f15a1a55779e6a1c7d5e3730d669b62b8d864736f6c63430008070033",
  "devdoc": {
    "kind": "dev",
    "methods": {},
    "version": 1
  },
  "userdoc": {
    "kind": "user",
    "methods": {},
    "version": 1
  },
  "storageLayout": {
    "storage": [
      {
        "astId": 3,
        "contract": "contracts/EthCharity.sol:EthCharity",
        "label": "amountEth",
        "offset": 0,
        "slot": "0",
        "type": "t_uint256"
      },
      {
        "astId": 37,
        "contract": "contracts/EthCharity.sol:EthCharity",
        "label": "events",
        "offset": 0,
        "slot": "1",
        "type": "t_array(t_struct(Event)22_storage)dyn_storage"
      },
      {
        "astId": 43,
        "contract": "contracts/EthCharity.sol:EthCharity",
        "label": "donors",
        "offset": 0,
        "slot": "2",
        "type": "t_mapping(t_address,t_array(t_struct(projectsDonated)27_storage)dyn_storage)"
      }
    ],
    "types": {
      "t_address": {
        "encoding": "inplace",
        "label": "address",
        "numberOfBytes": "20"
      },
      "t_array(t_struct(Event)22_storage)dyn_storage": {
        "base": "t_struct(Event)22_storage",
        "encoding": "dynamic_array",
        "label": "struct EthCharity.Event[]",
        "numberOfBytes": "32"
      },
      "t_array(t_struct(projectsDonated)27_storage)dyn_storage": {
        "base": "t_struct(projectsDonated)27_storage",
        "encoding": "dynamic_array",
        "label": "struct EthCharity.projectsDonated[]",
        "numberOfBytes": "32"
      },
      "t_enum(EventStatus)8": {
        "encoding": "inplace",
        "label": "enum EthCharity.EventStatus",
        "numberOfBytes": "1"
      },
      "t_mapping(t_address,t_array(t_struct(projectsDonated)27_storage)dyn_storage)": {
        "encoding": "mapping",
        "key": "t_address",
        "label": "mapping(address => struct EthCharity.projectsDonated[])",
        "numberOfBytes": "32",
        "value": "t_array(t_struct(projectsDonated)27_storage)dyn_storage"
      },
      "t_string_storage": {
        "encoding": "bytes",
        "label": "string",
        "numberOfBytes": "32"
      },
      "t_struct(Event)22_storage": {
        "encoding": "inplace",
        "label": "struct EthCharity.Event",
        "members": [
          {
            "astId": 10,
            "contract": "contracts/EthCharity.sol:EthCharity",
            "label": "eventName",
            "offset": 0,
            "slot": "0",
            "type": "t_string_storage"
          },
          {
            "astId": 12,
            "contract": "contracts/EthCharity.sol:EthCharity",
            "label": "requiredFund",
            "offset": 0,
            "slot": "1",
            "type": "t_uint256"
          },
          {
            "astId": 14,
            "contract": "contracts/EthCharity.sol:EthCharity",
            "label": "fundRaiserAddress",
            "offset": 0,
            "slot": "2",
            "type": "t_address"
          },
          {
            "astId": 17,
            "contract": "contracts/EthCharity.sol:EthCharity",
            "label": "status",
            "offset": 20,
            "slot": "2",
            "type": "t_enum(EventStatus)8"
          },
          {
            "astId": 19,
            "contract": "contracts/EthCharity.sol:EthCharity",
            "label": "collectedFund",
            "offset": 0,
            "slot": "3",
            "type": "t_uint256"
          },
          {
            "astId": 21,
            "contract": "contracts/EthCharity.sol:EthCharity",
            "label": "description",
            "offset": 0,
            "slot": "4",
            "type": "t_string_storage"
          }
        ],
        "numberOfBytes": "160"
      },
      "t_struct(projectsDonated)27_storage": {
        "encoding": "inplace",
        "label": "struct EthCharity.projectsDonated",
        "members": [
          {
            "astId": 24,
            "contract": "contracts/EthCharity.sol:EthCharity",
            "label": "eventName",
            "offset": 0,
            "slot": "0",
            "type": "t_string_storage"
          },
          {
            "astId": 26,
            "contract": "contracts/EthCharity.sol:EthCharity",
            "label": "donatedAmount",
            "offset": 0,
            "slot": "1",
            "type": "t_uint256"
          }
        ],
        "numberOfBytes": "64"
      },
      "t_uint256": {
        "encoding": "inplace",
        "label": "uint256",
        "numberOfBytes": "32"
      }
    }
  }
}